:100000000C9462000C948A000C948A000C948A0070
:100010000C948A000C948A000C948A000C948A0038
:100020000C948A000C948A000C948A000C948A0028
:100030000C948A000C948A000C948A000C948A0018
:100040000C949F030C948A000C948A000C948A00F0
:100050000C948A000C948A000C948A000C948A00F8
:100060000C94F0010C948A0000000000240027008A
:100070002A0000000000250028002B0000000000DE
:1000800023002600290004040404040404040202DA
:100090000202020203030303030301020408102007
:1000A0004080010204081020010204081020000012
:1000B0000007000201000003040600000000000029
:1000C00000002D0111241FBECFEFD8E0DEBFCDBF51
:1000D00011E0A0E0B1E0E0EFFAE002C005900D927F
:1000E000A831B107D9F711E0A8E1B1E001C01D9234
:1000F000A43EB107E1F710E0C4ECD0E004C02297C1
:10010000FE010E947205C23CD107C9F70E94610539
:100110000C9476050C940000E0916101F09162016D
:100120000280F381E02D81E691E060E071E044E03F
:1001300050E00995809105010E940E05892B21F45C
:100140008091050161E003C08091050160E00E949B
:10015000BA04089564E670E080E090E00E94E7034E
:1001600008950F931F9301E611E0C80162E470E067
:100170000E94C401C8016CE870E00E9428018091CF
:10018000050161E00E947B041F910F910895209169
:10019000390130E080913801281B3109C9010895E7
:1001A0004091380180913901481718F02FEF3FEF47
:1001B0000AC0E42FF0E0E85EFE4F8081282F30E097
:1001C0004F5F40933801C9010895E0913801809153
:1001D0003901E81718F0EFEFFFEF06C0F0E0E85E36
:1001E000FE4F8081E82FF0E0CF0108950895AC0123
:1001F00020915F013091600121153105E1F090916E
:100200003801809139019817B0F090E008C0FA01E8
:10021000EA0FFB1F8081A85EBE4F8C939F5FA92FC2
:10022000B0E0A617B7079CF310923801609339012C
:10023000CB01F90109950895E0915D01F0915E010E
:10024000309729F010925A0110925B010995089598
:1002500070935E0160935D010895109264011092A5
:10026000630188EE93E0A0E0B0E080936501909395
:100270006601A0936701B09368018BE091E09093D1
:100280006201809361010895CF92DF92EF92FF9215
:100290000F931F93CF93DF937C016B018A018091B1
:1002A0005C018823A1F0C0E0D0E00DC0D701ED9142
:1002B000FC91D601AC0FBD1F0190F081E02DC7016C
:1002C0006C9109952196C017D10780F304C0CB012A
:1002D000642F0E94CB01C801DF91CF911F910F9134
:1002E000FF90EF90DF90CF900895DF93CF930F9220
:1002F000CDB7DEB7FC01698380915C018823C9F02A
:1003000080915B01803238F081E090E093838283BA
:1003100020E030E015C080915A01E82FF0E0E65C63
:10032000FE4F998190838F5F80935A0180935B0188
:1003300005C0CE01019661E00E94CB0121E030E0D2
:10034000C9010F90CF91DF9108951092380110925A
:10035000390110925A0110925B010E9481030895A5
:100360000F931F938C01862F0E94C7018CE191E0AF
:100370000E94EB0187EF90E00E94E601C8010E9415
:10038000A5011F910F9108950E94B0010895880F53
:100390008093BA000895482F613210F081E00895EB
:1003A00080916D01843011F082E008956093B8016E
:1003B000A7E9B1E0842F9C01F90102C081918D93DE
:1003C0008E2F841B8617D0F380E0089590937401DC
:1003D0008093730108959093720180937101089541
:1003E0001F920F920FB60F9211242F933F934F93AA
:1003F0005F936F937F938F939F93AF93BF93EF938D
:10040000FF938091B90090E0887F907080369105CD
:1004100009F4F2C081369105CCF58832910509F4D2
:100420007BC089329105B4F48031910509F46FC025
:10043000813191053CF4009709F447C1089709F010
:100440004FC165C08831910509F466C0809709F0F5
:1004500047C182C08034910509F4A4C0813491055C
:1004600044F48033910509F482C0C89709F038C17B
:1004700089C08035910509F489C08835910509F452
:1004800096C08834910509F02BC1AEC0883991051A
:1004900009F413C189399105ECF48837910509F401
:1004A000ABC0893791054CF48836910509F4A4C096
:1004B0008037910509F014C19FC08838910509F46F
:1004C000FCC08039910509F49DC08038910509F080
:1004D00007C198C0803B910509F4C6C0813B9105D6
:1004E0004CF4803A910509F49FC0883A910509F0CF
:1004F000F7C0BAC0803C910509F4E3C0883C91057F
:1005000009F4DFC0883B910509F0EAC0C2C08091C0
:100510006E018093BB00CFC09091950180919601B0
:10052000981768F490919501E92FF0E0EB58FE4F91
:1005300080818093BB009F5F90939501BCC08091A8
:100540006F01882309F44BC085ED8093BC00809136
:10055000BC0084FDFCCFC2C080E28093DA0185ED4F
:100560008093BC008091BC0084FDFCCFB7C080E3C9
:100570008093DA0185ED8093BC008091BC0084FDFE
:10058000FCCFACC088E38093DA019BC080919501D9
:100590009091BB00E82FF0E0EB58FE4F90838F5F07
:1005A00080939501909195018091960182C08091F0
:1005B00095019091BB00E82FF0E0EB58FE4F90833F
:1005C0008F5F8093950180916F01882341F085EDC5
:1005D0008093BC008091BC0084FDFCCF7FC081E093
:1005E0008093700184EA6EC085ED8093BC00809199
:1005F000BC0084FDFCCF72C083E080936D0110923B
:10060000D90159C08091D901803208F056C080913B
:10061000D9019091BB00E82FF0E0E754FE4F9083A2
:100620008F5F8093D90147C08091D901803230F427
:10063000E091D901F0E0E754FE4F108285ED809300
:10064000BC008091BC0084FDFCCF10926D016091D4
:10065000D901E0917301F091740189EB91E070E0B0
:1006600009951092D9012DC084E080936D011092FC
:10067000B7011092B801E0917101F09172010995F2
:100680008091B801882329F481E08093B801109209
:1006900097019091B701E92FF0E0E956FE4F808174
:1006A0008093BB009F5F9093B7019091B7018091B9
:1006B000B801981710F485EC01C085E88093BC0060
:1006C0000FC085EC8093BC0009C01092DA0185ED63
:1006D0008093BC008091BC0084FDFCCF10926D0122
:1006E000FF91EF91BF91AF919F918F917F916F910A
:1006F0005F914F913F912F910F900FBE0F901F90E0
:10070000189510926D0181E080936F011092700135
:1007100082E161E00E94BA0483E161E00E94BA04D0
:10072000E9EBF0E080818E7F808380818D7F808304
:1007300088E48093B80085E48093BC0008951F92FC
:100740000F920FB60F9211242F933F938F939F9385
:10075000AF93BF938091DF019091E001A091E101FF
:10076000B091E2013091E3010196A11DB11D232F4B
:100770002D5F2D3720F02D570196A11DB11D20931F
:10078000E3018093DF019093E001A093E101B09336
:10079000E2018091DB019091DC01A091DD01B0913B
:1007A000DE010196A11DB11D8093DB019093DC0158
:1007B000A093DD01B093DE01BF91AF919F918F9126
:1007C0003F912F910F900FBE0F901F9018959B0196
:1007D000AC017FB7F8948091DB019091DC01A0918E
:1007E000DD01B091DE0166B5A89B05C06F3F19F031
:1007F0000196A11DB11D7FBFBA2FA92F982F882761
:10080000860F911DA11DB11D62E0880F991FAA1FBF
:10081000BB1F6A95D1F7BC012DC0FFB7F89480913A
:10082000DB019091DC01A091DD01B091DE01E6B524
:10083000A89B05C0EF3F19F00196A11DB11DFFBF98
:10084000BA2FA92F982F88278E0F911DA11DB11D9A
:10085000E2E0880F991FAA1FBB1FEA95D1F7861BFC
:10086000970B885E9340C8F2215030404040504082
:1008700068517C4F211531054105510571F60895E8
:10088000789484B5826084BD84B5816084BD85B56B
:10089000826085BD85B5816085BDEEE6F0E0808132
:1008A00081608083E1E8F0E0108280818260808353
:1008B000808181608083E0E8F0E0808181608083D6
:1008C000E1EBF0E0808184608083E0EBF0E0808108
:1008D00081608083EAE7F0E08081846080838081AA
:1008E0008260808380818160808380818068808352
:1008F0001092C1000895CF93DF93482F50E0CA01B2
:1009000086569F4FFC0134914A575F4FFA018491FC
:10091000882369F190E0880F991FFC01E859FF4F87
:10092000A591B491FC01EE58FF4FC591D491662377
:1009300051F42FB7F8948C91932F909589238C9331
:10094000888189230BC0623061F42FB7F8948C91B1
:10095000932F909589238C938881832B88832FBF35
:1009600006C09FB7F8948C91832B8C939FBFDF9127
:10097000CF910895482F50E0CA0182559F4FFC0146
:100980002491CA0186569F4FFC0194914A575F4FAC
:10099000FA013491332309F440C0222351F123306A
:1009A00071F0243028F42130A1F0223011F514C068
:1009B0002630B1F02730C1F02430D9F404C0809142
:1009C00080008F7703C0809180008F7D80938000AE
:1009D00010C084B58F7702C084B58F7D84BD09C0F7
:1009E0008091B0008F7703C08091B0008F7D80939D
:1009F000B000E32FF0E0EE0FFF1FEE58FF4FA59180
:100A0000B4912FB7F894662321F48C9190958923A3
:100A100002C08C91892B8C932FBF0895682F70E0B2
:100A2000CB0182559F4FFC012491CB0186569F4FED
:100A3000FC0144916A577F4FFB019491992319F46B
:100A400020E030E03CC0222351F1233071F024300B
:100A500028F42130A1F0223011F514C02630B1F075
:100A60002730C1F02430D9F404C0809180008F7702
:100A700003C0809180008F7D8093800010C084B57A
:100A80008F7702C084B58F7D84BD09C08091B0008E
:100A90008F7703C08091B0008F7D8093B000892F45
:100AA00090E0880F991F84589F4FFC01A591B49145
:100AB0008C9120E030E0842311F021E030E0C90186
:100AC0000895CF93DF930E9440040E94B100C0E0DC
:100AD000D0E00E94AA002097E1F30E940000F9CF25
:100AE000EE0FFF1F0590F491E02D0994F894FFCFCD
:100AF0004E415659000D000000000075014401C729
:080B000000D000E500F6000042
:00000001FF
